:100000000C945D000C94F8020C94F8020C945801C6
:100010000C94F8020C94F8020C94F8020C94F80278
:100020000C94F8020C94F8020C94F8020C94F80268
:100030000C94F8020C94F8020C94F8020C94F80258
:100040000C94F8020C94F8020C94F8020C94F80248
:100050000C94F8020C94F8020C94F8020C94F80238
:100060000C94F8020C94F8020C94F8020C94F80228
:100070000C94F8020C94F8020C94F8020C94F80218
:100080000C94F8020C94F8020C94F8020C94F80208
:100090000C94F8020C94F8020C94F8020C94F802F8
:1000A0000C94F8020C94F8020C94F8020C94F802E8
:1000B0000C94F80201000101800011241FBECFEF53
:1000C000D8E0DEBFCDBFE4EBF0E040E017C0B59173
:1000D000A59135912591059107FD0CC095918591CC
:1000E000EF01F92FE82F05900D92A217B307D9F76A
:1000F000FE0104C01D92A217B307E1F7E93BF40724
:0E01000031F70E94ED020C94AC02F894FFCF90
:10010E000FC00E94CD0238F00E94D40220F0952339
:10011E0011F00C94E2020C94F50211240C94DC0202
:10012E000E941C0270F3959FC1F3950F50E0551F6E
:10013E00629FF001729FBB27F00DB11D639FAA272E
:10014E00F00DB11DAA1F649F6627B00DA11D661F7D
:10015E00829F2227B00DA11D621F739FB00DA11D9E
:10016E00621F839FA00D611D221F749F3327A00D58
:10017E00611D231F849F600D211D822F762F6A2FF4
:10018E0011249F5750409AF0F1F088234AF0EE0F59
:10019E00FF1FBB1F661F771F881F91505040A9F786
:1001AE009E3F510580F00C94E2020C94DC025F3FFE
:1001BE00E4F3983ED4F3869577956795B795F795C2
:1001CE00E7959F5FC1F7FE2B880F911D969587953A
:0401DE0097F90895F0
:1001E20011C00E94CD0238F00E94D40220F039F4EE
:1001F2009F3F19F426F40C94F5020EF4E095E7FB08
:100202000C94E202E92F0E941C0258F3BA1762070B
:1002120073078407950720F079F4A6F50C94DB02A6
:100222000EF4E0950B2EBA2FA02D0B01B90190010F
:100232000C01CA01A0011124FF27591B99F0593F53
:1002420050F4503E68F11A16F040A22F232F342F9B
:100252004427585FF3CF469537952795A795F040E9
:100262005395C9F77EF41F16BA0B620B730B840BFE
:10027200BAF09150A1F0FF0FBB1F661F771F881FB6
:10028200C2F70EC0BA0F621F731F841F48F487950E
:1002920077956795B795F7959E3F08F0B0CF939500
:0E02A200880F08F09927EE0F9795879508951D
:1002B0002F932FB72F938F939F93EF93FF938FE3FA
:1002C0009CE90197F1F700C0000083B18170909123
:1002D00000018917E9F1809300018823E9F0E8E83B
:1002E000F0E088EE93E0918380839FEF23ED80E33D
:1002F000915020408040E1F700C0000087E893E182
:10030000918380839FEF23ED80E3915020408040D4
:10031000E1F700C000001CC0E8E8F0E087E893E1E6
:10032000918380839FEF23ED80E3915020408040B4
:10033000E1F700C0000088EE93E0918380839FEF97
:1003400023ED80E3915020408040E1F700C00000A1
:10035000FF91EF919F918F912F912FBF2F91189522
:10036000E89409C097FB3EF490958095709561954F
:100370007F4F8F4F9F4F9923A9F0F92F96E9BB2705
:100380009395F695879577956795B795F111F8CF81
:10039000FAF4BB0F11F460FF1BC06F5F7F4F8F4FEC
:1003A0009F4F16C0882311F096E911C0772321F0E2
:1003B0009EE8872F762F05C0662371F096E8862F7A
:1003C00070E060E02AF09A95660F771F881FDAF7D1
:0A03D000880F9695879597F9089518
:1003DA000E94240288F09F5798F0B92F9927B751A5
:1003EA00B0F0E1F0660F771F881F991F1AF0BA95CF
:1003FA00C9F714C0B13091F00E94DB02B1E0089550
:10040A000C94DB02672F782F8827B85F39F0B93F41
:10041A00CCF3869577956795B395D9F73EF4909581
:0E042A008095709561957F4F8F4F9F4F08957D
:1004380057FD9058440F551F59F05F3F71F047958D
:10044800880F97FB991F61F09F3F79F08795089572
:10045800121613061406551FF2CF4695F1DF08C091
:10046800161617061806991FF1CF869571056105AE
:040478000894089547
:10047C00BC01990F880B990B0E94B2012FE832EC4A
:10048C0041EB51E40E94F10220E030E04AE754E4F1
:10049C000E94C0020E94C60270938900609388007B
:0204AC000895B1
:1004AE00A0E8B0E08C9182608C93E1E8F0E080816E
:1004BE00886180838C9180688C9380818260808338
:0E04CE008FE39CE99093870080938600089549
:1004DC00092E0394000C11F4882352F0BB0F40F446
:1004EC00BF2B11F460FF04C06F5F7F4F8F4F9F4F86
:0204FC00089561
:1004FE009093C5008093C40088E18093C100E2EC24
:0E050E00F0E086E0808380818860808308951D
:10051C00CF93DF93EC018881882331F021960E94E0
:0E052C00B70289918111FBCFDF91CF91089525
:10053A00F89420982898E8E6F0E08081816080832A
:0E054A00EBE6F0E08081816080837894089574
:10055800EC010E94FD020E94FC02CE010E94FE02F4
:06056800CE010E94FA0220
:10056E00E0ECF0E0908195FFFDCF8093C6000895FA
:0E057E005058BB27AA270E94F1000C946E0271
:0E058C000E94ED016894B1110C94DC020895F8
:0E059A0000240A94161617061806090608957E
:0E05A80000240A941216130614060506089580
:0E05B600E894BB2766277727CB0197F90895B5
:0C05C40097F99F6780E870E060E0089500
:0A05D0000E9457020E949D02089548
:0805DA000E94E802219AFFCF04
:0805E2000E9487000C946E02D8
:0605EA009FEF80EC089574
:0405F0000C94000067
:0405F4000E948500DC
:0205F800089564
:0205FA00089562
:0205FC00089560
:00000001FF
