:100000000C946C000C9407290C9407290C94072974
:100010000C9407290C9407290C9407290C940729A0
:100020000C9407290C9407290C9407290C94C311EC
:100030000C9407290C9407290C9407290C94072980
:100040000C9407290C9407290C9407290C94072970
:100050000C9407290C9407290C9407290C94072960
:100060000C9407290C9407290C9407290C94072950
:100070000C9407290C9407290C9407290C94072940
:100080000C9407290C9407290C9407290C94072930
:100090000C9407290C9407290C9407290C94072920
:1000A0000C9407290C9407290C9407290C94072910
:1000B0000C9407290100010280010204D50052229C
:1000C00004D504D98004D904DC0055F504DC04EB24
:1000D0008004EB04EC0055F811241FBECFEFD8E0EC
:1000E000DEBFCDBFE4EBF0E040E017C0B591A591D5
:1000F00035912591059107FD0CC095918591EF01F2
:10010000F92FE82F05900D92A217B307D9F7FE013A
:1001100004C01D92A217B307E1F7E83DF40731F7D9
:0C0120000E9496000C945428F894FFCF25
:10012C00CF93DF93CDB7DEB7E4970FB6F894DEBF6D
:10013C000FBECDBF0E94A82580E090E00E94C12692
:10014C003A9A42988AB1837C8AB98BB1837C8BB9F9
:10015C001092C50087E68093C40088E08093C100AC
:10016C0086E08093C200E1E8F0E0808188608083C3
:10017C0080818560808388E09DE3909389008093E3
:10018C008800EFE6F0E080818260808378941092A2
:10019C00B0001092B1001092B20088E48093B800C5
:1001AC001092B90084E08093BC000E949C230E94B2
:1001BC006B213B9A439A2FEF83ED90E321508040C3
:1001CC009040E1F700C0000000E010E02FEF3FEF9F
:1001DC0044E653E064E18AE00E94D0232FEF3FEF26
:1001EC004EE653E064E186E40E94D0232FEF3FEF0C
:1001FC0046E753E062E38AE00E94D0232FEF3FEF03
:10020C004CE753E062E389E40E94D0232FEF3FEFE9
:10021C004CE753E062E38DE50E94D0232FEF3FEFD4
:10022C004EE753E064E685E00E94D0232FEF3FEFCA
:10023C0049E853E068E785E00E94D0230F2EFAE0EE
:10024C002F2E312C412C512CF02DFE0131966F01AB
:10025C00CE0106969CAB8BAB0F2EFCEBEF2EF12C4C
:10026C00F02D0F2EFBEB6F2E712CF02D89B199B167
:10027C009870892E99B19071A92E99B19072B92E5E
:10028C00982F9470992E82FF41C18091DF048111C7
:10029C003DC18091E804811159C08091D1049091A5
:1002AC00D204A091D304B091D4048F379145A140CE
:1002BC00B10508F04BC08091D1049091D204A0916B
:1002CC00D304B091D4040196A11DB11D8093D10427
:1002DC009093D204A093D304B093D4046091D1042E
:1002EC007091D2048091D3049091D404A201910115
:1002FC000E94CB25862F0E9458226091D1047091C8
:10030C00D2048091D3049091D404A20191010E9453
:10031C00CB25672B682B692B09F0F5C06091D104B4
:10032C007091D2048091D3049091D404A2019101D4
:10033C000E94CB25CA01B90126E030E040E050E034
:10034C000E94CB25862F0E948E22DDC08091E8046E
:10035C00813009F06BC08091D1049091D204A091AE
:10036C00D304B091D40484349145A140B10508F074
:10037C005DC08091D1049091D204A091D304B0912E
:10038C00D404CC96A11DB11D8093D1049093D204BA
:10039C00A093D304B093D4046091D1047091D2048F
:1003AC008091D3049091D4042CE330E040E050E0F1
:1003BC000E94CB25CA01B901A20191010E94CB2553
:1003CC00862F0E94C4226091D1047091D204809136
:1003DC00D3049091D4042CE330E040E050E00E9430
:1003EC00CB25CA01B901A20191010E94CB25672B33
:1003FC00682B692B09F087C06091D1047091D204ED
:10040C008091D3049091D40428E532E040E050E090
:10041C000E94CB25CA01B90126E030E040E050E053
:10042C000E94CB25862F0E94FA226DC08091E80491
:10043C00823009F068C08091D1049091D204A091CF
:10044C00D304B091D40480379344A140B10508F093
:10045C005AC08091D1049091D204A091D304B09150
:10046C00D404805F914FAF4FBF4F8093D1049093D2
:10047C00D204A093D304B093D4046091D1047091AE
:10048C00D2048091D3049091D40420E13EE040E06A
:10049C0050E00E94CB25CA01B901A20191010E9432
:1004AC00CB25862F0E9430236091D1047091D20409
:1004BC008091D3049091D40420E13EE040E050E0E0
:1004CC000E94CB25CA01B901A20191010E94CB2542
:1004DC00672B682B692BB9F46091D1047091D2040D
:1004EC008091D3049091D40420EA3CE840E050E0A1
:1004FC000E94CB25CA01B901A20191010E94CB2512
:10050C00862F0E94662381E08093EB04882009F4F7
:10051C0042C18091DE0481113EC18091E8048111B9
:10052C0059C08091D1049091D204A091D304B09180
:10053C00D404892B8A2B8B2B09F44CC08091D104C9
:10054C009091D204A091D304B091D4040197A10945
:10055C00B1098093D1049093D204A093D304B093A7
:10056C00D4046091D1047091D2048091D304909101
:10057C00D404A20191010E94CB25862F0E945822FF
:10058C006091D1047091D2048091D3049091D404E1
:10059C00A20191010E94CB2569307105810591055D
:1005AC0009F0F6C06091D1047091D2048091D3040B
:1005BC009091D404A20191010E94CB25CA01B901EA
:1005CC0026E030E040E050E00E94CB25862F0E94D0
:1005DC008E22DEC08091E804813009F06BC08091DE
:1005EC00D1049091D204A091D304B091D404CC97AF
:1005FC00A105B10508F45EC08091D1049091D2049C
:10060C00A091D304B091D404CC97A109B1098093E3
:10061C00D1049093D204A093D304B093D4046091EA
:10062C00D1047091D2048091D3049091D4042CE322
:10063C0030E040E050E00E94CB25CA01B901A20194
:10064C0091010E94CB25862F0E94C4226091D10477
:10065C007091D2048091D3049091D4042CE330E0B7
:10066C0040E050E00E94CB25CA01B901A2019101E2
:10067C000E94CB25693071058105910509F088C070
:10068C006091D1047091D2048091D3049091D404E0
:10069C0028E532E040E050E00E94CB25CA01B901C8
:1006AC0026E030E040E050E00E94CB25862F0E94EF
:1006BC00FA226EC08091E804823009F069C0809102
:1006CC00D1049091D204A091D304B091D404803180
:1006DC009E40A105B10508F45BC08091D1049091B6
:1006EC00D204A091D304B091D40480519E40A109AE
:1006FC00B1098093D1049093D204A093D304B09306
:10070C00D4046091D1047091D2048091D30490915F
:10071C00D40420E13EE040E050E00E94CB25CA0129
:10072C00B901A20191010E94CB25862F0E94302392
:10073C006091D1047091D2048091D3049091D4042F
:10074C0020E13EE040E050E00E94CB25CA01B90117
:10075C00A20191010E94CB2569307105810591059B
:10076C00B9F46091D1047091D2048091D30490912A
:10077C00D40420EA3CE840E050E00E94CB25CA01BA
:10078C00B901A20191010E94CB25862F0E946623FC
:10079C0081E08093EB04BB2009F440C08091DD0420
:1007AC0081113CC08091E80490E0019663E070E018
:1007BC000E9438278093E80400E010E024E246E928
:1007CC0064E186E40E945F258091E804811109C0F0
:1007DC002FEF3FEF4EE653E064E186E40E94D02316
:1007EC001DC08091E804813059F400E010E02FEF37
:1007FC003FEF44E953E064E186E40E94D0230EC04D
:10080C008091E804823051F400E010E02FEF3FEFCC
:10081C004CE953E064E186E40E94D023AA2031F134
:10082C008091DC04811122C08091E9048823A1F01D
:10083C001092E9041092EA042092D1043092D2046E
:10084C004092D3045092D404429860E070E086E168
:10085C0090E00E947B1B0AC08091EA04882319F067
:10086C001092EA0403C081E08093EA049092DF04C2
:10087C008092DE04A092DC04B092DD04FFEF20E74E
:10088C0082E0F15020408040E1F700C000008091F0
:10089C00D5049091D6048233910530F4019690934F
:1008AC00D6048093D5040FC11092D6041092D504AF
:1008BC003B9A439A9FEFE0E7F2E09150E040F04022
:1008CC00E1F700C0000085E0F60111928A95E9F786
:1008DC003B9A4398FFEF29EF80E0F1502040804095
:1008EC00E1F700C00000439A88E290E00E9486275E
:1008FC003B98439A339B12C000E010E081E090E0FB
:10090C000E9486270F5F1F4F339B04C0083C1105C4
:10091C00A9F7D9C0083C110508F0D5C0339912C00D
:10092C0000E010E081E090E00E9486270F5F1F4FEF
:10093C00339904C0083C1105A9F7C5C0083C110542
:10094C0008F0C1C0339B12C000E010E081E090E0E1
:10095C000E9486270F5F1F4F339B04C0083C110574
:10096C00A9F7B1C0083C110508F0ADC0FE013196E5
:10097C004F0147C000E010E081E090E00E94862724
:10098C000F5F1F4F339904C0083C1105A9F79BC09A
:10099C00083C110508F097C08EE190E00E94862774
:1009AC00339B20C081E090E00A2C02C0880F991F75
:1009BC000A94E2F7F4019081892B8083339B12C057
:1009CC0000E010E081E090E00E9486270F5F1F4F4F
:1009DC00339B04C0083C1105A9F775C0083C1105F0
:1009EC0008F071C0F1E0AF1AB10818F0339BC2CF18
:1009FC00D3CF8FEF881A980AEBA9FCA9E815F90553
:100A0C0031F00F2EF7E0AF2EB12CF02DEFCF898106
:100A1C009B814D8150E06A81282F30E0260F311DDB
:100A2C00290F311D6C81260F311D332742175307B7
:100A3C0009F049C0E6C18091E7041F928F9382EAC6
:100A4C0093E09F938F931F9280E28F93DF92CF92CC
:100A5C000E94602700E010E02FEF3FEFA60164E654
:100A6C0085E00E94D0238091E7048093E5040FB6C3
:100A7C00F894DEBF0FBECDBF9091E6048091E404E4
:100A8C00981709F18091E6041F928F93EDEAF3E039
:100A9C00FF93EF931F9280E28F93DF92CF920E948D
:100AAC00602700E010E02FEF3FEFA60168E785E03C
:100ABC000E94D0238091E6048093E4040FB6F8944E
:100ACC00DEBF0FBECDBF8091EB04882309F458C064
:100ADC006091D1047091D2048091D3049091D4048C
:100AEC002CE330E040E050E00E94CB2549015A0154
:100AFC007F936F93A9E8B8E80E94D62796958795BF
:100B0C00929582958F7089279F7089274CE3489F17
:100B1C009001499F300D1124C401821B930B9F93AC
:100B2C008F9394010E94D6279695879592958295DE
:100B3C008F7089279F70892799279F938F9389EBB3
:100B4C0093E09F938F931F9280E18F93DF92CF92CC
:100B5C000E94602700E010E020E144E660E08AE0BB
:100B6C000E945F252FEF3FEFA60160E08AE00E9414
:100B7C00D0231092EB040FB6F894DEBF0FBECDBF9E
:100B8C0084EAF7018083F70180818823E4F780ED04
:100B9C000E94332880E00E94332884EAF701808386
:100BAC00F70180818823E4F781ED0E94332884ECDF
:100BBC00F7018083F70180818823E4F7F3018081BA
:100BCC00B82EB694B694B694B694BB0C9B2D990FD4
:100BDC00990FB90E8F70B80E84ECF7018083F70172
:100BEC0080818823E4F7F3018081A82EA694A69433
:100BFC00A694A694AA0C9A2D990F990FA90E8F70F2
:100C0C00A80E84E8F7018083F70180818823E4F73C
:100C1C00F3018081982E9694969496949694990CC0
:100C2C00992D990F990F990E8F70980E84E9F701F1
:100C3C0080838091DB04891519F11F929F9288ECB7
:100C4C0093E09F938F931F9288E08F93DF92CF92C4
:100C5C000E94602700E010E022E446E462E38CE3AB
:100C6C000E945F252FEF3FEFA60162E38CE30E9409
:100C7C00D0239092DB040FB6F894DEBF0FBECDBF2D
:100C8C008091DA048A1519F11F92AF9288EC93E0E7
:100C9C009F938F931F9288E08F93DF92CF920E9445
:100CAC00602700E010E022E44AE562E380E50E9460
:100CBC005F252FEF3FEFA60162E380E50E94D02372
:100CCC00A092DA040FB6F894DEBF0FBECDBF8091B0
:100CDC00D9048B1519F11F92BF9288EC93E09F9366
:100CEC008F931F9288E08F93DF92CF920E946027A0
:100CFC0000E010E022E44EE662E384E60E945F2509
:100D0C002FEF3FEFA60162E384E60E94D023B0925E
:100D1C00D9040FB6F894DEBF0FBECDBF8091D104BD
:100D2C009091D204A091D304B091D404892B8A2B36
:100D3C008B2B09F05CC08091E904882309F457C01F
:100D4C00429A0E945F282091D7043091D80481E008
:100D5C002A3131050CF480E08093E2048091E204A6
:100D6C008823D1F08091E0048A3020F48F5F809347
:100D7C00E0041FC08091E30481111BC084E1EFEEFD
:100D8C00F3E0D60101900D928A95E1F7C6010E941D
:100D9C00C7270E94B8240DC08091E004882321F05D
:100DAC0081508093E00405C08091E30481110E947E
:100DBC00E4243091E3042091E2048091D7049091D3
:100DCC00D8041F923F931F922F939F938F938DEC78
:100DDC0093E09F938F93DF92CF920E947427C6016A
:100DEC000E94C7270FB6F894DEBF0FBECDBFFFEF32
:100DFC0020E782E0F15020408040E1F700C0000085
:100E0C0035CA9093E7048093E6049091E7048091AF
:080E1C00E504981310CE30CE5E
:100E2400A6E2B0E0E8E1F7E00C948A2698A38F8F5D
:100E34007F8B6E8B288FFB010190F081E02DFA8768
:100E4400E987FB0102811381248135813B8B2A8B45
:100E5400808591859AA389A326803780FA018080B2
:100E64009180A280B38020E030E0A901C501B401E3
:100E74000E94E52887FF06C0B7FAB094B7F8B0948B
:100E84008DE204C0598552FF47C38BE2F101808390
:100E94002A893B89215031093C832B8341E050E06E
:100EA400598B488B06C08A899B899C838B83198ABA
:100EB400188AD501C401BF770097E0E8AE07EFE7D1
:100EC400BE0799F4F88D2F2FFF0F330B21543109EE
:100ED40088899989820D931D2A31310518F46EEAA7
:100EE40074E019C062EB74E016C00197A048BF47D4
:100EF400A8F0488D242F440F330B215431098889DD
:100F04009989820D931D2A31310518F466EB74E03A
:100F140002C06AEB74E00E94A328EDC220E030E036
:100F2400A901C501B4010E94E528C12CD12C20E8F7
:100F3400E22E2FE3F22E1A821982882309F48CC040
:100F44008D829E82AF82B88620E030E040E251E498
:100F5400C701B6010E94F7282B013C01D501C40149
:100F640084199509A609B709B7FF07C0B095A095DC
:100F7400909581959F4FAF4FBF4F0297A105B10543
:100F840044F489819A8101969A8389837301620169
:100F9400DBCFA5019401C301B2010E94E52887FDBE
:100FA400F0CF8D819E81AF81B8858C199D09AE09E2
:100FB400BF090196A11DB11D0397A105B10508F450
:100FC40049C01E821D82A5019401C701B6010E9479
:100FD400EA2818160CF040C0E981FA81E43DFE4F7E
:100FE400E4F44D815E81452BC1F420E030E040E81B
:100FF4005AE5C501B4010E94F7284B015C0120E0C9
:1010040030E040E85AE5C701B6010E94F7286B01B9
:101014007C0181E090E09E838D8320E030E040E21B
:1010240051E4C701B6010E94F3286B017C01E981F8
:10103400FA813197FA83E983D501C4018C199D099A
:10104400AE09BF090196A11DB11D0397A105B10504
:1010540008F0B9CF46015701288D022E000C330B3E
:10106400398F288FC9010E949B288A8F17FD03C0DE
:101074001E830D8304C046E050E05E834D835A8D89
:10108400573641F4012B09F04CC281E090E09E8375
:101094008D8347C24A8D4F8706C029813A8137FF25
:1010A40052C256E65F878D819E8101969E838D8311
:1010B4009F859636B9F4E981FA81F7FF08C0C12CFF
:1010C400D12C90E8E92E9FE3F92E1A821982FA8D29
:1010D400F73641F02D813E8149815A81240F351F15
:1010E4003E832D831C2DDDA2EBA20F2D8B869C86C7
:1010F400AD86BE861D8A1C8A8C899D89ED81FE8100
:101104008E179F07DCF5212F3DA14BA1502F6B8536
:101114007C858D859E850E94F3280E94271A2B01C9
:101124003C010E94B9286B8FA3019201612F7DA11C
:101134008BA1902F0E94F7282B853C854D855E85D9
:101144000E94B2289B01AC0150582B873C874D87E5
:101154005E8720E030E040E251E4612F7DA18BA165
:10116400902F0E94F328162F7DA38BA3092F4C895F
:101174005D894F5F5F4F5D8B4C8BBECF20E030E0CD
:1011840040EA50E4612F7DA18BA1902F0E94F728A3
:101194002B013C019B01AC016B857C858D859E8573
:1011A4000E94E52887FD0DC0A30192016B857C8513
:1011B4008D859E850E94E528811106C0FB8DF0FD7A
:1011C40003C0412C512C3201A5019401C301B20189
:1011D4000E94B3284B015C0120E030E040E251E47E
:1011E400C701B6010E94F7286B877C8B182F092F43
:1011F4009B01482F592FC501B4010E94EA2887FD9D
:1012040014C029813A812F5F3F4F3A8329833F8558
:10121400363679F44D815E814F5F5F4F5E834D8337
:101224005B855DA38C898EA30BC0CB86DC8A1E2DC7
:101234000F2D9F85953639F0EB85EDA3FC89FEA330
:10124400E980FA8006C02B852DA33C893EA3E12CBE
:10125400F12C48885988C12CD12C1D8A1C8A1C86E3
:101264001B8649855A85407155275CA34BA32B8562
:101274003C854D815E812417350734F08C899D8926
:10128400892B09F494C09FC03201EE89FF898085BF
:10129400918505974816590688F72DA13EA1412F3F
:1012A400502FC501B4010E94F3280E94271A6B8FA6
:1012B4007C8F8D8F9E8F0E94B9286A30710514F03F
:1012C40069E070E08BA19CA1892B69F4611571051B
:1012D40051F49A8D973639F4F7FE05C03601EFEFD5
:1012E4006E1A7E0A38C02C893D89232B99F4F7FEA7
:1012F40011C03FEF431A530AF101E60DF71D4EE208
:1013040040838B819C8101979C838B83E1E0F0E097
:10131400FD8BEC8BF101E40DF51D360161147104B4
:1013240031F020E3219331E0631A7108F7CFC6014D
:10133400840D951D2B813C812C193D092C014FEF07
:10134400441A540AF101E80FF91F605D6083C90172
:1013540001979C838B832B8D3C8D4D8D5E8D6DA170
:101364007EA1812F902F0E94F728A50194010E944D
:10137400B2284B015C01B7FAB094B7F8B09420E0FE
:1013840030E040E251E46DA17EA1812F902F0E94B4
:10139400F3286DA37EA3182F092F91E0E91AF10811
:1013A400EB85FC853196FC87EB87630160CFF9857B
:1013B400F4FF09C0F101E40DF51D8EE28083920172
:1013C4002F5F3F4F2901A101440D551D5E834D83BD
:1013D400FA011082FF85F53609F061C0E9A1FAA18E
:1013E400E20DF31D3197108229813A8137FF08C03D
:1013F4003195219531093A83298301E010E002C037
:1014040000E010E0E9A1FAA13197E20DF31D22E01A
:1014140030E08AE0E82EF12CCF018219930949814A
:101424005A81452B91F089819A81B7010E9438270E
:10143400805D829369837A83215031094B815C8179
:10144400415051095C834B83E7CF121613065CF3BA
:10145400FC013197E20DF31D012B11F42BE201C0C5
:101464002DE220830297B101680F791F288D398DF1
:10147400215431092A31310510F025E601C025E453
:10148400FB0120832B813C81225031093C832B8337
:101494004816590624F48D819E810E94A32839851B
:1014A40031FF29C030FD27C04B815C81141615061D
:1014B40014F5C1010E94E527820D931D9C01221998
:1014C400330948895989241735074CF0FC012081D8
:1014D400EB81FC81E80FF91F20830197EFCF4B814B
:1014E4005C8160E370E088899989820D931D0E9474
:1014F4007A281B8A1A8AC1010E94E52709851A8560
:101504002A893B89AC01B1018F8D98A10E941F22C9
:10151400A696E2E10C94A626598553FFC4CC80E23A
:10152400B5CC89819A818C3F9F4F54F0E981FA812F
:101534002D813E81E217F3070CF4AFCD35E604C0EC
:0C154400F5E6FF87CFCD36E63F87CCCD23
:10155000A0E2B0E0EEEAFAE00C948A26998F888F38
:10156000FB01298320812F8331813A8F82819381EE
:10157000998B888B248135813D872C878085918547
:101580009C8F8B8F66807780FA01C080D180E2804B
:10159000F38020E030E0A901C701B6010E94E528F0
:1015A00087FF06C0F7FAF094F7F8F0948DE204C0D4
:1015B0005F8152FFE1C28BE2F30180832C853D8580
:1015C000215031093F872E8741E050E05E834D83F3
:1015D00006C08C859D859F878E871E821D82B701E0
:1015E000A6017F77E9810E2E000CFF0BFB87EA87AF
:1015F00041155105F0E86F07FFE77F07A9F42A8539
:101600003B85215431098D819E81860D971D2A319C
:10161000310518F46EE974E002C062EA74E00E94D9
:10162000A32882EA94E098C28D819E81860D971D41
:101630004130510560487F4788F02A853B85215419
:1016400031092A31310518F466EA74E002C06AEA09
:1016500074E00E94A3288AEA94E07EC220E3FC01A1
:101660002083ED81FE813196E60DF71D2D813E81AF
:101670002E5F3F4F3E832D834A855B854154510940
:101680005F8B4E8B4A31510510F088E701C088E529
:10169000808320E030E0A901C701B6010E94E5285F
:1016A0001C821B821F8E1982882309F469C050E8AE
:1016B00058A38FE38A832F8D398148A15A816F8D7A
:1016C000798188A19A810E94B3285B018C01A701CE
:1016D00096010E94EA2818160CF447C0EB81FC81A1
:1016E0003196FC83EB83AF8EB98208A31A83E3CFD4
:1016F00020E030E040E05FE36F8D798188A19A813E
:101700000E94F72820E030E0A9010E94E52881111D
:1017100018C020E030E040E85AE56F8D798188A15B
:101720009A810E94F7286F8F798388A39A8320E09B
:1017300030E040E85AE5C701B6010E94F7286B0186
:101740007C0120E030E040E05FE36F8D798188A18B
:101750009A810E94F7286F8F798388A39A832B81BF
:101760003C81215031093C832B832F8D398148A145
:101770005A81C701B6010E94E52887FDB9CF04C090
:1017800030E838A34FE34A838889998997FF02C0DC
:1017900088E190E0FC013196F987E8878F8C998089
:1017A000A8A0BA8016018701412C512C9401A501F3
:1017B000B101C8010E94F3280E94271A6A8B7B8B13
:1017C0008C8B9D8B9401A5010E94F7289B01AC0195
:1017D000B101C8010E94B2281B018C0120E030E059
:1017E00040E85DE3B401C5010E94F7284B015C01AC
:1017F000FFEF4F1A5F0A2889398937FF09C020E0B7
:1018000030E0A901B101C8010E94E528882331F028
:1018100048855985441655064CF202C059864886BB
:1018200020E030E040E051E4B401C5010E94F72817
:101830004B015C019B01AC01B101C8010E94E5288C
:1018400087FD12C0A5019401B101C8010E94E528DD
:1018500081110DC06A897B898C899D890E94B92874
:1018600061707727672B19F4812C912C5401A50105
:101870009401C701B6010E94B3286B017C01DC0111
:10188000CB01BF770097A048BF4709F4B8CE2E849C
:101890003F8482E0281A3108E885F985F195E195C1
:1018A000F109FB8BEA8B0D811E81412C512C1F8687
:1018B0001E86198618862B8D3C8D255031093E8F4A
:1018C0002D8F1B870A87ED8DFE8D0E171F0708F0E1
:1018D00093C02F8D398148A15A81C701B6010E945A
:1018E000F3280E94271A4B015C010E94B928AB0122
:1018F0006115710541F4E885F985EF2B21F0FFEFC3
:101900004F1A5F0A4FC02E853F85232B99F4E88537
:10191000F985EF2B79F00F5F1F4FEA85FB85E60D08
:10192000F71D2EE2208331E0231A3108E1E0F0E0D8
:10193000FF87EE87F301E00FF11F920121153105BA
:1019400029F0A0E3A19321503109F8CFF801E40D6B
:10195000F51DFB87EA87241835084A3051051CF429
:10196000605D7F4F02C0695A7F4F2E893F892A31BF
:10197000310550F4CB018062815691094A9720F4D9
:10198000CB010E947128BC010A851B850F5F1F4F88
:10199000EA85FB85E60DF71D608331E0231A3108E7
:1019A000412C512C2F8D398148A15A81C501B40198
:1019B0000E94F7289B01AC01C701B6010E94B22822
:1019C0006B017C0120E030E040E85DE36F8D7981C0
:1019D00088A19A810E94F7286F8F798388A39A83C0
:1019E0004885598541505109598748878A899B897B
:1019F0008417950709F065CF2E853F85232B49F580
:101A0000F301E00FF11F41145104E1F048895989B5
:101A100014161506BCF45F8150FD14C08EE280835D
:101A2000F8013196E60DF71DC20120E321930197DD
:101A3000E9F7040D151D0F5F1F4F40945094240CBF
:101A4000351C07C08F8184FF04C08EE280830F5F46
:101A50001F4FF301E00FF11FF987E8871082EB8D2C
:101A6000FC8D3197E60DF71D10822B813C8137FFED
:101A700009C03195219531093C832B83EE24E394F1
:101A8000F12C02C0E12CF12C21E030E08AE0C82EDC
:101A9000D12CCF01861997094B815C81452B79F0B8
:101AA0008B819C81B6010E943827805D82936B8375
:101AB0007C832150310941E0241A3108EACF2130DA
:101AC000310571F3FC013197E60DF71DE114F104C6
:101AD00011F42BE201C02DE220830297B301680FBD
:101AE000791FEE89FF897A9710F020E701C020E581
:101AF000FB0120830817190724F4888599850E9423
:101B0000A328FF81F1FF27C0F0FD25C022E0221AA3
:101B1000310812141304FCF4C3010E94E527860D5A
:101B2000971D9C01261937094D815E8124173507C1
:101B30003CF0FC012081E20DF31D20830197F1CFE1
:101B4000A10160E370E08D819E81860D971D0E944A
:101B50007A281D861C86C3010E94E5270F811A8DF5
:101B60002C853D85AC01B301888D998D0E941F2283
:101B7000A096E2E10C94A6265F8153FF2ACD80E275
:021B80001BCD7B
:101B8200A2E1B0E0E7ECFDE00C948D264C016B0184
:101B92001A8219828FEF9FEF9C838B831E821D8294
:101BA20058874F833A872987A12CB12CD6016D9093
:101BB2007C90F301EA0DFB1D808181110FC0D601DB
:101BC200ED93FC938081853209F0D9C13F01BFEFCB
:101BD2006B1A7B0AF6017182608219C0853279F331
:101BE200B401082E000C990B0E94BD1F4FEFA41ADE
:101BF200B40ADCCF8C32ACF08D32F9F489819A814F
:101C020081609A8389833196D601ED93FC93D60144
:101C1200ED91FC9180818B3269F789819A81846090
:101C2200F0CF803221F489819A818860EACF8332B1
:101C320051F489819A818061E4CF803321F48981D2
:101C42009A818260DECFB701C6010E948A249E83F8
:101C52008D8397FF0BC029813A81B1E02B273A830C
:101C620029839195819591099E838D8389819A819A
:101C720080FF03C08D7F9A838983D601ED91FC9109
:101C8200119780818E3249F43196ED93FC93B7011E
:101C9200C6010E948A249C838B83C6010E940F2660
:101CA200582ED601ED91FC918081082E000C990BE3
:101CB2000E949B28893609F443C084F4833609F4D0
:101CC20008C134F4853209F42DC18136E1F036C100
:101CD2008436B1F188360CF4DFC030C1803709F4A4
:101CE2009AC03CF48E3609F4C2C08F3609F461C042
:101CF20025C1853709F440C0883709F476C0833797
:101D020009F01CC1F9C0652D70E0A701CE010B9648
:101D12000E942F26892B09F42CC1D601ED91FC914A
:101D22001197CF0101968D939C932081AE01455F5F
:101D32005F4FBE016F5F7F4FC4010E94A80A16C1A8
:101D4200652D70E0970141E050E0CE010B960E94B4
:101D52007716892B09F40DC1F601808191810196D4
:101D620091838083AE01455F5F4FBE016F5F7F4FFE
:101D7200C4010E94B815FAC0652D70E0970140E0D9
:101D820050E0CE010B960E947716892B09F4F1C020
:101D9200D6018D919C91119701968D939C93AE01E2
:101DA200455F5F4FBE016F5F7F4FC4010E94151FE9
:101DB200DDC0652D70E0970140E050E0CE010B964A
:101DC2000E947716892B09F4D4C0F6018081918193
:101DD200019691838083AE01455F5F4FBE016F5FC5
:101DE2007F4FC4010E94BF1CC1C0652D70E09701E6
:101DF20040E050E0CE010B960E947716892B09F441
:101E0200B8C0D601ED91FC911197CF0101968D9347
:101E12009C93208122C0D701ED91FC911197CF01B3
:101E220002968D939C93008111810B871C871D86DE
:101E32001E861F86188A198A1A8AF6018081918164
:101E42000196918380838B859C85892B29F420E0E0
:101E520030E04BEC54E084C028E7AE01455F5F4FB1
:101E6200BE016F5F7F4FC4010E948A137FC0A5012C
:101E7200400F511F652D70E09701CE010B960E9415
:101E8200E91B892B09F475C0D6018D919C9111979C
:101E920001968D939C9373C0652D70E0A701CE01CE
:101EA2000B960E942F26892B09F463C0D601ED916F
:101EB200FC911197CF0101968D939C932081AE01E5
:101EC200455F5F4FBE016F5F7F4FC4010E941207E3
:101ED2004DC0B0E85B124DC0F60180819181019640
:101EE20091838083D701ED91FC911197CF010296E6
:101EF2008D939C93808120C0B0E85B123AC0F601BA
:101F020080819181019691838083D701ED91FC912B
:101F12001197CF0102968D939C934081518120E0CD
:101F220030E01EC0B0E85B1224C0F601208131818E
:101F32002F5F3F4F318320838B870DC085E28B87D4
:101F4200D6016D927C921A8219821E821D828FEFB7
:101F52009FEF9C838B8321E030E0AE01455F5F4FB2
:101F6200BE016F5F7F4FC4010E940F258A0D9B1D2A
:101F720007C0F60180819181019691838083C5011A
:081F82006296EFE00C94A92621
:101F8A00AEE0B0E0EBECFFE00C948D264C016B0167
:101F9A001A8219828FEF9FEF9C838B831E821D8288
:101FAA0058874F833A872987A12CB12CD6016D9087
:101FBA007C90F301EA0DFB1D808181110FC0D601CF
:101FCA00ED93FC938081853209F0D3C13F01BFEFC5
:101FDA006B1A7B0AF6017182608219C0853279F325
:101FEA00B401082E000C990B0E94BD1F4FEFA41AD2
:101FFA00B40ADCCF8C32ACF08D32F9F489819A8143
:10200A0081609A8389833196D601ED93FC93D60138
:10201A00ED91FC9180818B3269F789819A81846084
:10202A00F0CF803221F489819A818860EACF8332A5
:10203A0051F489819A818061E4CF803321F48981C6
:10204A009A818260DECFB701C6010E945C249E831A
:10205A008D8397FF0BC029813A81B1E02B273A8300
:10206A0029839195819591099E838D8389819A818E
:10207A0080FF03C08D7F9A838983D601ED91FC91FD
:10208A00119780818E3249F43196ED93FC93B70112
:10209A00C6010E945C249C838B83C6010E940F2682
:1020AA00582ED601ED91FC918081082E000C990BD7
:1020BA000E949B28893609F443C084F4833609F4C4
:1020CA0002C134F4853209F427C18136E1F030C106
:1020DA008436B1F188360CF4D9C02AC1803709F4A4
:1020EA009AC03CF48E3609F4BCC08F3609F461C03C
:1020FA001FC1853709F440C0883709F476C0833791
:10210A0009F016C1F3C0652D70E0A701CE010B9648
:10211A000E942F26892B09F426C1D601ED91FC9144
:10212A001197CF0101968D939C932081AE01455F53
:10213A005F4FBE016F5F7F4FC4010E94A80A10C1A2
:10214A00652D70E0970141E050E0CE010B960E94A8
:10215A007716892B09F407C1F601808191810196CE
:10216A0091838083AE01455F5F4FBE016F5F7F4FF2
:10217A00C4010E94B815F4C0652D70E0970140E0D3
:10218A0050E0CE010B960E947716892B09F4EBC01A
:10219A00D6018D919C91119701968D939C93AE01D6
:1021AA00455F5F4FBE016F5F7F4FC4010E94151FDD
:1021BA00D7C0652D70E0970140E050E0CE010B9644
:1021CA000E947716892B09F4CEC0F601808191818D
:1021DA00019691838083AE01455F5F4FBE016F5FB9
:1021EA007F4FC4010E94BF1CBBC0652D70E09701E0
:1021FA0040E050E0CE010B960E947716892B09F435
:10220A00B2C0D601ED91FC911197CF0101968D9341
:10221A009C9320811CC0970140E050E060EF70E081
:10222A00CE010B960E947716892B09F49CC0F60101
:10223A00808191810196918380838B859C85892BEE
:10224A0029F420E030E045EC54E084C028E7AE01F0
:10225A00455F5F4FBE016F5F7F4FC4010E948A13C3
:10226A007FC0A501400F511F652D70E09701CE0177
:10227A000B960E94E91B892B09F475C0D6018D9132
:10228A009C91119701968D939C9373C0652D70E074
:10229A00A701CE010B960E942F26892B09F463C051
:1022AA00D601ED91FC911197CF0101968D939C93E4
:1022BA002081AE01455F5F4FBE016F5F7F4FC40152
:1022CA000E9412074DC0B0E85B124DC0F601808132
:1022DA009181019691838083D701ED91FC911197A9
:1022EA00CF0102968D939C93808120C0B0E85B1247
:1022FA003AC0F60180819181019691838083D7014A
:10230A00ED91FC911197CF0102968D939C93408198
:10231A00518120E030E01EC0B0E85B1224C0F60113
:10232A00208131812F5F3F4F318320838B870DC0FE
:10233A0085E28B87D6016D927C921A8219821E825F
:10234A001D828FEF9FEF9C838B8321E030E0AE01EB
:10235A00455F5F4FBE016F5F7F4FC4010E940F252B
:10236A008A0D9B1D07C0F601808191810196918398
:0C237A008083C5012E96EFE00C94A9268C
:102386001F920F920FB60F9211242F923F924F92E7
:102396005F926F927F928F929F92AF92BF92CF92EF
:1023A600DF92EF92FF920F931F932F933F934F93DA
:1023B6005F936F937F938F939F93AF93BF93EF93A7
:1023C600FF93CF93DF93CDB7DEB72A97DEBFCDBF9E
:1023D6008091E1048F3F19F41092E1046FC11092CD
:1023E600E1048091EA04882309F44CC18091D10468
:1023F6009091D204A091D304B091D404892B8A2B56
:102406008B2B09F43FC18091D1049091D204A09105
:10241600D304B091D4048B839C83AD83BE83609137
:10242600D1047091D2048091D3049091D4040F2EDC
:10243600FAE0CF2ED12CE12CF12CF02DA70196013C
:102446000E94CB250F2EF6E08F2E912CA12CB12CBD
:10245600F02DCA01B901A50194010E94CB256F8315
:102466006091D1047091D2048091D3049091D404E8
:102476002CE330E040E050E00E94CB25CA01B901D0
:10248600A70196010E94CB2568876091D1047091BF
:10249600D2048091D3049091D4040F2EF8E54F2EE8
:1024A600F2E05F2E612C712CF02DA30192010E94A7
:1024B600CB25CA01B901A50194010E94CB256A87E3
:1024C6006091D1047091D2048091D3049091D40488
:1024D60020E13EE040E050E00E94CB25CA01B90170
:1024E600A70196010E94CB25262E6091D1047091FA
:1024F600D2048091D3049091D40420EA3CE840E0D1
:1025060050E00E94CB25CA01B901A70196010E949D
:10251600CB2569878091D1049091D204A091D304F0
:10252600B091D4040197A109B1098093D104909385
:10253600D204A093D304B093D40481E08093EB0437
:102546006091D1047091D2048091D3049091D40407
:10255600A70196010E94CB25162F6091D104709198
:10256600D2048091D3049091D404A70196010E94CD
:10257600CB25CA01B901A50194010E94CB25698327
:10258600362E6091D1047091D2048091D30490913B
:10259600D4042CE330E040E050E00E94CB25CA0191
:1025A600B901A70196010E94CB256A83062F609187
:1025B600D1047091D2048091D3049091D404A301E4
:1025C60092010E94CB25CA01B901A50194010E947E
:1025D600CB25B62EA62E6091D1047091D20480919F
:1025E600D3049091D40420E13EE040E050E00E9404
:1025F600CB25CA01B901A70196010E94CB25962ECB
:10260600862E6091D1047091D2048091D30490916A
:10261600D40420EA3CE840E050E00E94CB25CA0101
:10262600B901A70196010E94CB25762E662E6B81F5
:102636007C818D819E81A70196010E94CB2516176C
:1026460019F0812F0E9458229F81931519F08981D4
:102656000E948E22A885A01719F08A810E94C422A2
:10266600BA85BA1519F08B2D0E94FA22281419F092
:10267600892D0E9430238985861501F1872D0E94B8
:1026860066231CC08091D1049091D204A091D304FA
:10269600B091D404892B8A2B8B2B81F48091E90489
:1026A60081110CC081E08093E9041092EA04429AF9
:1026B60061E070E081E190E00E947B1B2A960FB6F4
:1026C600F894DEBF0FBECDBFDF91CF91FF91EF91A2
:1026D600BF91AF919F918F917F916F915F914F9134
:1026E6003F912F911F910F91FF90EF90DF90CF9028
:1026F600BF90AF909F908F907F906F905F904F901C
:0E2706003F902F900F900FBE0F901F901895D0
:10271400A4E1B0E0E0E9F3E10C948A2698878F8382
:102724007A8369835C8B4B8B122FDB011296ED91BC
:10273400FC91139714962D913C9115973E832D830C
:10274400CD90DC90119716962D903C901797F7FD3D
:1027540003C0E894C1F802C0E1E0F0E0C601807172
:1027640099279A878987C4FE1FC0AB89BC892C919D
:1027740011963C91119712964C91129713965C9175
:10278400139714966C91149715967C911597169639
:102794008C91169717969C91A0E00E94272821F00F
:1027A4008D819E81029702C08D819E819601287041
:1027B40033273C872B87C3FC0197AB89BC894C909A
:1027C40011965C90119712966C90129713967C90C8
:1027D400139714968C90149715969C9015971696AB
:1027E400AC9016971796BC90A981BA811896ED9073
:1027F400FC901997B1E0EB1AF108D101AE0DBF1DA1
:102804001C929C838B839F01281B390B3E872D8749
:10281400C60182709927988B8F87812F012E000C17
:10282400990BDC01A154B109BA8BA98B32E0E316F0
:10283400F10430F489859A85892B09F04CC073C062
:102844009201A301B401C501A0E00E94272881F1EF
:10285400B1E0EB1AF108C2018F7099278A30910513
:1028640014F4C09602C0895A9F4FE989FA897A976D
:1028740048F49C012062215631092A31310510F4B3
:102884000E947128F101EE0DFF1D80832B813C8194
:10289400215031093C832B839201A301B401C5016A
:1028A40004E00E94512629013A014B015C01BECF8C
:1028B4008D859E85AB81BC818A0F9B1F18161906D6
:1028C4003CF21A161B060CF0B5CFEF85F889EF2BF6
:1028D40009F0BECFAFCFAB89BC892C9111963C9146
:1028E400119712964C91129713965C911397149624
:1028F4006C91149715967C91159716968C91169752
:1029040017969C91A0E00E94272869F0F101EE0D32
:10291400FF1D31971083B2E0EB1AF108F101EE0DBF
:10292400FF1D80E38083EB85FC85EF2B41F0F1E014
:10293400EF1AF108F101EE0DFF1D80E28083A981F9
:10294400BA8118964D915C911997415051094E19CD
:102954005F09B1016E0D7F1D86012D813E818F813E
:1029640098850E941F229C01EF81F88580819181C6
:1029740090FF09C0A981BA8112968D919C911397F9
:10298400821793070CF4C9016496E2E10C94A6261D
:10299400AFE0B0E0E0EDF4E10C948A261C016B0199
:1029A4005A8349832B83FB018281938184809580A0
:1029B40000811181A680B78097FD02C00D7F02C0FF
:1029C40081E090E0E981FA814080518062807380E7
:1029D4009801207133273D832C83740104FF08C0C0
:1029E400411451046104710419F032E0E31AF1084E
:1029F400F801E870FF27FF83EE8303FF03C0F1E0D3
:102A0400EF1AF108F6010084F185E02D3197FF8774
:102A1400EE87EA0DFB1D10829C012E193F093987B0
:102A24002887C801827099279B878A87EB818E2F1C
:102A3400EE0F990B9C01215431093D872C872E857B
:102A44003F852230310530F48C819D81892B09F03A
:102A540042C05CC0411451046104710461F18E856B
:102A64009F8501979F878E87C2018F7099278A302F
:102A7400910514F4C09602C0895A9F4FEC85FD85D8
:102A84007A9748F49C012062215631092A31310594
:102A940010F40E947128EE85FF85EA0DFB1D8083EA
:102AA400F1E0EF1AF10884E0769467945794479420
:102AB4008A95D1F7C4CF888599858E0D9F1D1816E8
:102AC40019066CF21E141F040CF0BECFEA85FB85B8
:102AD400EF2B29F6B9CFE981FA8180819181A28116
:102AE400B381892B8A2B8B2B89F0EE85FF85EA0D28
:102AF400FB1D31972B8120838E859F8502979F87AD
:102B04008E87FC01EA0DFB1D80E38083EE81FF814B
:102B1400EF2B59F02E853F85215031093F872E87B1
:102B2400F901EA0DFB1D80E28083F60140855185A1
:102B3400415051092E853F85421B530BB9016A0D43
:102B44007B1D9401C1010E941F229C01F10180811F
:102B5400918190FF06C0F6018281938182179307C9
:0C2B64000CF4C9012F96E2E10C94A626A7
:102B7000ADE0B0E0EEEBF5E10C948A269A87898708
:102B80007C836B83FA01DB011296CD90DC90139766
:102B900014968D919C9115979E838D83ED90FC905A
:102BA0001197FA82E98216960D90BC91A02DB887F4
:102BB000AF8320803180428053806480758086801E
:102BC00097808101B42DF52DE62D7B868C869D8620
:102BD0009101A201B301C401A0E00E9427284CF496
:102BE0000E94A8278901B42FF52FE62F7B878C87B9
:102BF0009D87D7FC04C0E894E1F8FA82E98291014C
:102C0000A201B301C401A0E0ED80FE800E9427284C
:102C10001CF0898182FF04C081E0E81AF10805C038
:102C200083FF03C091E0E91AF108CE0101965C012F
:102C30008AE0C82ED12C2B2F3F2F4E2F5B856C8521
:102C40007D858B819C810E943017FC019101A2013E
:102C5000B301C401A0E00E9427281CF0898182FFF3
:102C600012C031970F8118850E0F1F1F9101A2010D
:102C7000B301C401A0E00E94272814F08BE201C038
:102C80008DE2D80108C083FF07C03197AF81B885B6
:102C9000AE0FBF1F80E28C9309811A81AB81BC818A
:102CA00018964D915C911997415051094E1B5F0B3D
:102CB0006F8178856E0F7F1F2D813E8189859A8572
:102CC0000E941F229C01E985FA858081918190FFF5
:102CD00009C0AB81BC8112968D919C91139782178C
:0E2CE00093070CF4C9012D96E2E10C94A62690
:102CEE000F931F93CF93DF93FC01D90168387105C1
:102CFE0031F194F461387105B1F12CF4603871053D
:102D0E0009F478C09FC06238710509F459C064385F
:102D1E00710509F46FC096C0603A710509F448C098
:102D2E002CF46039710509F44BC08CC0603C710500
:102D3E0009F476C0603F710509F472C083C0CD916D
:102D4E00DC911197CE0102968D939C93452B39F011
:102D5E009881892F880F880B908381835BC088812F
:102D6E008083118268C0CD91DC911197CE010496BB
:102D7E008D939C93452B99F088819981AA81BB8173
:102D8E00AC01BD01770F440B542FBA0180839183A0
:102D9E00A283B383448345834683478328C0088137
:102DAE0019812A813B81008311832283338345C09D
:102DBE00CD91DC911197CE0102968D939C9323C0F9
:102DCE00CD91DC911197CE0108968D939C937881CD
:102DDE0069815A814B813C812D819E818F817083C7
:102DEE00618352834383348325839683878381E073
:102DFE0090E02AC0CD91DC911197CE0102968D9371
:102E0E009C93452BA1F099812881892F880F880BDF
:102E1E002083918382838383848385838683E6CF15
:102E2E00CD91DC911197CE0102968D939C930881E2
:102E3E0019810083118312821382148215821682E5
:102E4E001782D5CF80E090E0DF91CF911F910F9147
:022E5E000895D5
:102E6000A2E1B0E0E6E3F7E10C948A26FC010A8BCC
:102E7000912E822E732E642E552E462E7D83CC8667
:102E8000DA86B986A886268137813F832E83D501CD
:102E90008D919C91228133810084F185E02D3197C1
:102EA00037FF02C021E030E04E815F81E40FF51F63
:102EB0001082FC83EB831701A1E0B0E0BA83A98301
:102EC000F901EE19FF09FE87ED879C012270332777
:102ED000388B2F873A85330F330B398BEB81FC818D
:102EE0002E813F81E21BF30B4B815C81421753071C
:102EF00009F44FC02A89392D482D572D662D752D7F
:102F0000842D9D81A0E00E94272899F14C854B8754
:102F1000A42EBA84C988DC2CEC2CFC2C0C2D1C2D86
:102F20002A89392D482D572D662D752D842D9D818B
:102F30000E94F327C90129839A83805DAB81BC81FC
:102F40008E93BC83AB83B1E02B1A31082A89392DCB
:102F5000482D572D662D752D842D9D810E94F527B6
:102F60002A8B932E842E752E662E572E482E9D83E7
:102F7000B5CF8D859E85820D931D1816190634F2E6
:102F80001214130444F48F859889892B09F0BECF5D
:102F900002C0E0E0F0E0A981BA81AB2B41F4A88542
:102FA000B9858D919C9111978F7E8D939C93CF01C4
:082FB0006296E2E10C94A626F2
:102FB8002F923F924F925F926F927F928F929F9241
:102FC800AF92BF92CF92DF92EF92FF920F931F932F
:102FD800CF93DF9300D000D000D0CDB7DEB7E0EAC2
:102FE800F0E0E81BF10976970CF461C0E0E8F0E046
:102FF800E61BF10979970CF45AC069019A01220F6E
:10300800331F220F331F420F531F9A012E593F4F70
:103018003A8329833FE0380F3B83382E6C83E9815C
:10302800FA818190FA83E9836C80A12CB12C912CD0
:103038000F2EF3E05F2EF02D530C23C0E114F104A2
:1030480031F0A6016D818E810E94012805C0A8017A
:103058006D818E810E940128FD81FF5FFD837F12B3
:10306800EDCF2E812F5F2E83521619F0472C6D82DB
:10307800E5CF3FEFA31AB30A642C88E0A816B10481
:1030880091F074010A2C02C0F594E7940A94E2F7CF
:1030980091E0E922FF24252C3E820F2EF3E07F2EBB
:1030A800F02D760CE3CF322CEB81E211B8CF2696C7
:1030B8000FB6F894DEBF0FBECDBFDF91CF911F9141
:1030C8000F91FF90EF90DF90CF90BF90AF909F90BF
:1030D8008F907F906F905F904F903F902F900895C2
:1030E8008F929F92AF92BF92CF92DF92EF92FF9210
:1030F8000F931F93CF93DF9300D000D000D0CDB7AC
:10310800DEB75C0186E0E5EEF2E0DE0111960190A3
:103118000D928A95E1F78981882309F451C08E01BF
:103128000E5F1F4F0E948328F80181918F01811142
:10313800F9CF46C0F6018081882384F50E948B2848
:10314800F80181938F01E815F905A1F7F501808150
:103158008E3739F581858F3E39F5A501495F5F4F77
:1031680080E090E0F70121917F01820F911D4E17B9
:103178005F07C1F7919581959109492F5527F50169
:10318800278130E04217530791F49927208530E0D2
:103198008217930779F4838190E026C08DEF9FEF23
:1031A80023C08FEF9FEF20C08FEF9FEF1DC08EEFE2
:1031B8009FEF1AC08EEF9FEF17C08DEF9FEF14C0DF
:1031C8008091C0008823CCF70E948B28F501819359
:1031D8007F014501FAE08F0E911C87010F2EF0EC5C
:1031E800CF2ED12CF02DA6CF26960FB6F894DEBFA1
:1031F8000FBECDBFDF91CF911F910F91FF90EF9040
:0E320800DF90CF90BF90AF909F908F90089571
:103216002F923F924F925F926F927F928F929F92E0
:10322600AF92BF92CF92DF92EF92FF920F931F93CE
:10323600CF93DF9300D000D000D0CDB7DEB79E830A
:103246008D837B016A013C832B831A830983CA0120
:103256002D813E81821B930B8C0122F400271127BE
:10326600081B190B8B819C818E199F091C0122F466
:1032760022243324281A390A8D819E818C159D05B6
:1032860024F044244A94542C03C044244394512CDF
:103296002B813C81E216F30624F066246A94762C90
:1032A60003C066246394712C480182189308AA24EB
:1032B600BB24A218B30849815A816E2D8D810E94C4
:1032C60001288D819E818C159D0529F42B813C81D9
:1032D600E216F306B1F0C401880F991FA816B906C5
:1032E60044F4821893082D813E81240D351D3E83BA
:1032F6002D8380179107FCF6800E911EE60CF71CB5
:10330600DACF26960FB6F894DEBF0FBECDBFDF919B
:10331600CF911F910F91FF90EF90DF90CF90BF90CC
:10332600AF909F908F907F906F905F904F903F905F
:043336002F90089537
:10333A002F923F924F925F926F927F928F929F92BB
:10334A00AF92BF92CF92DF92EF92FF920F931F93A9
:10335A00CF93DF93482E362EE901042F10E081E047
:10336A0090E05C01A01AB10AE42CF42C0F2EF3E0D1
:10337A008F2E912CF02DC12CD12C262E2418AE0183
:10338A00622C6F0C662D742C700E872D0E940128FA
:10339A00AE01532C500E652D8F2D0E940128AE01CF
:1033AA00652D8E2D0E940128AE01662D542C501ACF
:1033BA00852D0E940128AE01622C6E0C662D852D8A
:1033CA000E940128AE01532C501A652D8E2D0E94A1
:1033DA000128AE01652D8F2D0E940128AE01662DB0
:1033EA00872D0E9401288FEFC81AD80A1A141B04C5
:1033FA001CF0A80CB91C0AC001501109C601801B97
:10340A00910B880F991F0196A80EB91EF394EA949E
:10341A0082E0880E911C0C151D050CF0B0CFDF91CF
:10342A00CF911F910F91FF90EF90DF90CF90BF90B7
:10343A00AF909F908F907F906F905F904F903F904A
:04344A002F90089522
:10344E008F929F92AF92BF92CF92DF92EF92FF92A6
:10345E000F931F938B019C0157E136952795179576
:10346E0007955A95D1F71127A8014F5751094731A2
:10347E0051050CF045C057FD2DC00FEF1FEF2FE784
:10348E0030E004C035952795179507954A95D2F7E4
:10349E004801590186229722A822B92289288A2812
:1034AE008B2871F197FF07C0DC01CB01800F911FB4
:1034BE00A21FB31F02C0DC01CB0100951095209511
:1034CE00309580239123A223B323482F392F2A2FFF
:1034DE005B2F1AC097FF0FC08B019C01000F111FAD
:1034EE00221F331F012B022B032B51F040E030E043
:1034FE0020E85FEB09C040E030E020E050E004C07F
:10350E00462F372F282F592F642F732F822F952F49
:10351E001F910F91FF90EF90DF90CF90BF90AF90E3
:06352E009F908F900895AC
:10353400A2E0B0E0E0EAFAE10C948A263C016B01D7
:10354400FB0122813381A480B580808191819A839B
:10355400898386809780FA0120803180428053805D
:10356400B201A10157FE07C044275527BA014219E9
:1035740053096409750937FD03C08D7F9A838983D4
:10358400950157FC05C0898182FD02C083FF02C0FA
:1035940021503109CE0101967C010AE010E0C601F8
:1035A4000E94301757FC03C0298122FF0AC00197EB
:1035B400F401E80FF91F57FC02C02BE209C02DE209
:1035C40007C023FF06C00197F401E80FF91F20E2AA
:1035D400208309811A81F6014085518541505109A2
:1035E400481B590BB401680F791F9501C3010E9450
:1035F4001F229C01F3018081918190FF06C0F60196
:1036040082819381821793070CF4C9012296E2E127
:043614000C94A62646
:1036180010C00E94C72858F00E94C02840F029F422
:103628005F3F29F00C94D52851110C94CF280C94A5
:1036380004290E94ED2568F39923B1F3552391F3EA
:10364800951B550BBB27AA2762177307840738F009
:103658009F5F5F4F220F331F441FAA1FA9F335D066
:103668000E2E3AF0E0E832D091505040E695001C1A
:10367800CAF72BD0FE2F29D0660F771F881FBB1FD4
:10368800261737074807AB07B0E809F0BB0B802DB2
:10369800BF01FF2793585F4F3AF09E3F510578F0DE
:1036A8000C94D5280C94CF285F3FE4F3983ED4F3CC
:1036B800869577956795B795F7959F5FC9F7880FB2
:1036C800911D9695879597F90895E1E0660F771F04
:1036D800881FBB1F621773078407BA0720F0621B95
:0E36E800730B840BBA0BEE1F88F7E095089564
:1036F6000F931F93CF93DF93CDB7DEB7CE56D10985
:103706000FB6F894DEBF0FBECDBFAB0161E00E94DD
:10371600E320CE0101960E94741881349105B9F414
:1037260080E2E1E0F3E0DE011B9601900D928A95BE
:10373600E1F78B858823F1F18E01045F1F4F0E940C
:103746008328F80181918F018111F9CF33C080342C
:103756009105D1F48F811F928F938E811F928F9343
:103766008BEE92E09F938F938E01055F1F4F1F9301
:103776000F930E947427C8010E94C7270FB6F894BA
:10378600DEBF0FBECDBF16C085E2E1E2F3E0DE018B
:103796001B9601900D928A95E1F78B85882351F04F
:1037A6008E01045F1F4F0E948328F80181918F01CB
:1037B6008111F9CFC259DF4F0FB6F894DEBF0FBEA5
:0C37C600CDBFDF91CF911F910F910895AE
:1037D200CF93DF93DC01F90164387105D9F164F408
:1037E2006138710521F16238710509F440C0603811
:1037F200710509F054C02EC060397105C1F184F41D
:103802006838710509F04BC0C081D181CE010296A2
:1038120091838083E881F981ED93FC9340833CC0DE
:10382200603A7105B9F0603C7105A1F038C0C08101
:10383200D181CE01029691838083E881F981ED9353
:10384200FC93052E000C660B770B40835183628339
:10385200738322C0C081D181CE010296918380837D
:10386200E881F981ED93FC935183408315C0C081B7
:10387200D181CE01029691838083E881F981ED9313
:10388200FC9351834083852F880F880B8283838327
:10389200848385838683878381E090E002C080E011
:0838A20090E0DF91CF91089541
:1038AA000FC00E94C02838F00E94C72820F0952334
:1038BA0011F00C94D5280C94042911240C94CF28C7
:1038CA000E94ED2570F3959FC1F3950F50E0551FA7
:1038DA00629FF001729FBB27F00DB11D639FAA275B
:1038EA00F00DB11DAA1F649F6627B00DA11D661FAA
:1038FA00829F2227B00DA11D621F739FB00DA11DCB
:10390A00621F839FA00D611D221F749F3327A00D84
:10391A00611D231F849F600D211D822F762F6A2F20
:10392A0011249F5750409AF0F1F088234AF0EE0F85
:10393A00FF1FBB1F661F771F881F91505040A9F7B2
:10394A009E3F510580F00C94D5280C94CF285F3FF8
:10395A00E4F3983ED4F3869577956795B795F795EE
:10396A00E7959F5FC1F7FE2B880F911D9695879566
:04397A0097F908951C
:10397E00A2E0B0E0E5ECFCE10C948A261C014B01C0
:10398E00FA01DB0112962D913C91139714964D90EE
:10399E005C9015978D919C9111979A8389831696B9
:1039AE006D907C90179737FD03C08D7F9A83898326
:1039BE000081118122813381448155816681778115
:1039CE00FE0131965F0188E0C82ED12C7201C40130
:1039DE000E943017298124FF06C00197F301E80FDA
:1039EE00F91F20E32083298123FF06C00197F301ED
:1039FE00E80FF91F20E2208309811A81D40118965D
:103A0E004D915C91199741505109481B590BB301C7
:103A1E00680F791F9201C1010E941F229C01F101C2
:103A2E008081918190FF08C0D40112968D919C9156
:103A3E001397821793070CF4C9012296E2E10C94B6
:023A4E00A626AA
:103A5000CF93DF93DC01F90168387105F1F05CF474
:103A60006138710561F164387105A1F16038710543
:103A700009F051C02FC0603C710509F441C0603F9E
:103A80007105F1F1603A710509F045C0C081D1813D
:103A9000CE0102969183808325C0C081D181CE0161
:103AA000029691838083452B39F04881042E000CC7
:103AB000550B660B770B1CC0488150E029C0C081B4
:103AC000D181CE01049691838083488159816A8196
:103AD0007B810EC0C081D181CE010296918380830B
:103AE000452BA1F048815981052E000C660B770B00
:103AF0004D935D936D937C93139781E090E00DC09F
:103B0000C081D181CE010296918380834881598101
:103B100060E070E0EDCF80E090E0DF91CF9108951C
:103B200011C00E94C02838F00E94C72820F039F444
:103B30009F3F19F426F40C9404290EF4E095E7FB5A
:103B40000C94D528E92F0E94ED2558F3BA17620787
:103B500073078407950720F079F4A6F50C94CE2816
:103B60000EF4E0950B2EBA2FA02D0B01B901900198
:103B70000C01CA01A0011124FF27591B99F0593FDC
:103B800050F4503E68F11A16F040A22F232F342F24
:103B90004427585FF3CF469537952795A795F04072
:103BA0005395C9F77EF41F16BA0B620B730B840B87
:103BB000BAF09150A1F0FF0FBB1F661F771F881F3F
:103BC000C2F70EC0BA0F621F731F841F48F4879597
:103BD00077956795B795F7959E3F08F0B0CF939589
:0E3BE000880F08F09927EE0F979587950895A6
:103BEE00A0E0B0E0EDEFFDE10C948C26DC012801A5
:103BFE001696AD90BC901797F70180819181129621
:103C0E00ED91FC9113971896CD91DC911997219710
:103C1E00F7FF02C0E1E0F0E0CA0DDB1D188269017A
:103C2E00A1E0B0E08F01021B130B4C01F2E08F22DA
:103C3E009924052C000C66087708CE018A199B0979
:103C4E00CA15DB0519F1411551056105710589F09C
:103C5E00CB01BA01A30192010E94CB25CA01A62F66
:103C6E00B72F605D6A9341E0C41AD108A901BC0167
:103C7E00E4CF98012C0D3D1D121613064CF31C14A7
:103C8E001D0434F48114910419F702C080E090E011
:103C9E00AB2B31F4F701208131812F7E31832083CC
:0A3CAE00CDB7DEB7E0E10C94A826C4
:103CB8006F927F928F929F92AF92BF92CF92DF9234
:103CC800EF92FF920F931F93CF93DF93E0EAF0E018
:103CD800E81BF1093897ECF1E0E8F0E0E61BF109A0
:103CE8003897BCF158016901762E4A01880C991C55
:103CF800880C991C480D591D9A012E593F4F4901AE
:103D08000F2EF5E06F2EF02D680E082FF401E190CC
:103D18004F01172DC0E0D0E0F12CC7010C2E02C0D6
:103D2800959587950A94E2F780FF06C0A601612F52
:103D3800802F0E94012805C0A501612F802F0E94B5
:103D4800012821961F5FC830D10539F70F5F06118A
:103D5800DDCFDF91CF911F910F91FF90EF90DF9012
:103D6800CF90BF90AF909F908F907F906F90089565
:103D7800A2E0B0E0E2ECFEE10C948E264C016B016F
:103D8800FB012281338164807580808191819A83CF
:103D98008983A680B78037FD03C08D7F9A83898386
:103DA800FA014081518162817381CE0101967C01C3
:103DB80008E010E09301C6010E943017298124FF12
:103DC80006C00197F501E80FF91F20E32083298138
:103DD80023FF06C00197F501E80FF91F20E22083B1
:103DE80009811A81F6014085518541505109481BC6
:103DF800590BB501680F791F9301C4010E941F2256
:103E08009C01F4018081918190FF06C0F6018281B6
:103E18009381821793070CF4C9012296EEE00C9463
:023E2800AA26C8
:103E2A00A2E0B0E0EBE1FFE10C948A263C014B01F1
:103E3A00FA01DB0112962D913C91139714964D903D
:103E4A005C9015978D919C9111979A838983169608
:103E5A002D903C90179737FD03C08D7F9A838983F5
:103E6A000081118122813381448155816681778164
:103E7A00FE0131965F018AE0C82ED12C7201C4017D
:103E8A000E94301709811A81D40118964D915C91CC
:103E9A00199741505109481B590BB101680F791FF5
:103EAA009201C3010E941F229C01F301808191812A
:103EBA0090FF08C0D40112968D919C911397821796
:0E3ECA0093070CF4C9012296E2E10C94A6269F
:103ED80088249924F401E401B0E49F93AA279A1551
:103EE8008B049C04ED05FE05CF05D007A10798F4C7
:103EF800AD2FDC2FCF2FFE2FE92D982C892E982F50
:103F0800872F762F652F542F432F322F2227B85013
:103F180031F7BF9127C01B2EBF91BB27220F331F3C
:103F2800441F551F661F771F881F991F881C991CDF
:103F3800EE1FFF1FCC1FDD1FAA1FBB1F8A149B0487
:103F4800EC05FD05CE05DF05A007B10748F08A1886
:103F58009B08EC09FD09CE09DF09A00BB10B216014
:103F68001A94E1F62EF49401AF01BE01CD01000CC4
:023F78000895AA
:103F7A000F931F93CF93DF93DB01109719F48FEF01
:103F8A009FEF3DC02D913C91119730FF25C01696A9
:103F9A004D915C91179714962D913C911597421764
:103FAA00530778F41296ED91FC9113978083129639
:103FBA002D913C9113972F5F3F4F13963C932E936D
:103FCA00129716962D913C9117972F5F3F4F179690
:103FDA003C932E93169713C01C96ED91FC911D9756
:103FEA00309769F2EB01092F182F0995892B39F6B9
:103FFA008E819F8101969F838E83812F902FDF91DF
:08400A00CF911F910F91089561
:10401200CF93DF93DC01F9016438710579F1CCF4B7
:104022006038710559F161387105B9F5C081D181E6
:10403200CE01029691838083E881F981ED93FC930E
:10404200052E000C660B770B4083518362837383CA
:1040520021C0603A710591F0603C710579F06838D1
:104062007105D9F4C081D181CE01029691838083FA
:10407200E881F981ED93FC9340830CC0C081D1812A
:10408200CE01029691838083E881F981ED93FC93BE
:104092005183408381E090E002C080E090E0DF91B4
:0440A200CF9108951D
:1040A600BF92CF92DF92EF92FF920F931F93CF931F
:1040B600DF93EC012A98D62E0F2EF4EFBF2EF02DAB
:1040C600CC24C39429C0289888810E94DB287E01CD
:1040D60082E0E80EF11C9981289A8FEF890F9923C7
:1040E60061F0E70190E00196E80EF91E87018991DB
:1040F6000E94DB28C017D107D1F7E7012196F70107
:104106008081882341F08F3F11F090E002C08B2D13
:104116009C2D0E943E28DA94D110D5CF2A9ADF91A1
:10412600CF911F910F91FF90EF90DF90CF90BF90AE
:024136000895EA
:10413800A2E0B0E0E2EAF0E20C948E265C016B01AA
:10414800FB012281338184809580808191819A83CB
:1041580089836680778037FD03C08D7F9A83898342
:10416800FA014081518162817381CE0101967C01FF
:104178000AE010E09401C6010E94301709811A81F3
:10418800F6014085518541505109481B590BB3012F
:10419800680F791F9401C5010E941F229C01F50137
:1041A8008081918190FF06C0F601828193818217F8
:0E41B80093070CF4C9012296EEE00C94AA269F
:1041C600EF92FF920F931F93CF93DF93CDB7DEB796
:1041D6002A970FB6F894DEBF0FBECDBF9EE7998330
:1041E6009FEF9A8396E09B838C836D83252F30E027
:1041F6005E834F8390E08B5F9E4F860F911D280F45
:10420600391F240F311D31952195310938872987AA
:104216008FEE8A878E010F5F1F4F7E018BE0E80EBF
:10422600F11CF80181918F010E9483280E151F054C
:10423600C1F72A960FB6F894DEBF0FBECDBFDF9149
:0C424600CF911F910F91FF90EF90089511
:10425200A0E1B0E0EFE2F1E20C949426FB01BA0196
:10426200AE014F5F5F4F6A0140E1D6011D924A9550
:10427200E9F742E051E05A8349839C838B83F7FF3D
:1042820009C08FE490E090930101809300018FEFC9
:104292009FEF1CC0309729F0AF01415051095E8356
:1042A2004D83A9018F017C01C6010E94DB26011505
:1042B200110561F04F8158852D813E8142175307C8
:1042C20008F49A01F701E20FF31F10826096E8E00A
:0442D2000C94B02672
:1042D600E4E6F0E080818E7F8083ACE7B0E08C91ED
:1042E60080648C938C918F778C93EAE7F0E08081E1
:1042F6008160808380818260808380818460808306
:104306008C918E7F8C938C918D7F8C938C918B7FEF
:104316008C938C91877F8C93808180628083ABE7BE
:10432600B0E08C918E7F8C938C918D7F8C938C9149
:104336008B7F8C93AEE7B0E08C9181608C9380810B
:0C434600806880838081806480830895FB
:10435200A2E8B0E0EFEAF1E20C9490265C014A0197
:10436200CF57DF4F79836883C158D040C12CD12CFD
:10437200CF57DF4FE881F981C158D040808188232F
:10438200E9F07401860120E830E0AE014F5F5F4F33
:10439200BE016F577F4FC5010E94C10D8C0D9D1D3F
:1043A2008C159D054CF48FE490E09093010180936D
:1043B20000018FEF9FEF03C06C01DACFC601CE5729
:0843C200DF4FECE00C94AC2687
:1043CA00A0E1B0E0EBEEF1E20C949626FB01BA0113
:1043DA00AE014F5F5F4F7A0140E1D7011D924A95C6
:1043EA00E9F742E051E05A8349839C838B83F7FFC4
:1043FA0009C08FE490E090930101809300018FEF50
:10440A009FEF14C0A9018C013197FE83ED83C70188
:10441A000E94F3264F8158852D813E81421753070A
:10442A0008F49A01F801E20FF31F10826096E6E0A1
:04443A000C94B22606
:10443E00A0E0B0E0E5E2F2E20C9490266C015B01A4
:10444E007A01E901480181E08822992400FD03C028
:10445E004217530750F0A701B501C6010E946D2601
:10446E00EC16FD0610F0C70117C08E010E191F09BC
:10447E000115110541F0B60180E290E00E94BD1FCA
:10448E0001501109F5CF8114910429F4A701B5014A
:10449E00C6010E946D26CE01CDB7DEB7ECE00C94BE
:0244AE00AC263A
:1044B000EF92FF920F931F93CF93DF9300D0CDB76E
:1044C000DEB71F928F9382EE92E09F938F931F929D
:1044D00082E08F93CE0101967C019F938F930E947F
:1044E000602700E010E020E14EE460E086E40E94F6
:1044F0005F252FEF3FEFA70160E086E40E94D02305
:104500000FB6F894DEBF0FBECDBF0F900F90DF91B6
:0C451000CF911F910F91FF90EF90089544
:10451C00EF92FF920F931F93CF93DF9300D0CDB701
:10452C00DEB71F928F9382EE92E09F938F931F9230
:10453C0082E08F93CE0101967C019F938F930E9412
:10454C00602700E010E020E146E460E08CE30E948C
:10455C005F252FEF3FEFA70160E08CE30E94D02393
:10456C000FB6F894DEBF0FBECDBF0F900F90DF914A
:0C457C00CF911F910F91FF90EF900895D8
:10458800EF92FF920F931F93CF93DF9300D0CDB795
:10459800DEB71F928F9382EE92E09F938F931F92C4
:1045A80082E08F93CE0101967C019F938F930E94A6
:1045B800602700E010E020E14CE360E082E30E9425
:1045C8005F252FEF3FEFA70160E082E30E94D02331
:1045D8000FB6F894DEBF0FBECDBF0F900F90DF91DE
:0C45E800CF911F910F91FF90EF9008956C
:1045F400EF92FF920F931F93CF93DF9300D0CDB729
:10460400DEB71F928F9382EE92E09F938F931F9257
:1046140082E08F93CE0101967C019F938F930E9439
:10462400602700E010E020E142E360E088E20E94BD
:104634005F252FEF3FEFA70160E088E20E94D023BF
:104644000FB6F894DEBF0FBECDBF0F900F90DF9171
:0C465400CF911F910F91FF90EF900895FF
:10466000EF92FF920F931F93CF93DF9300D0CDB7BC
:10467000DEB71F928F9382EE92E09F938F931F92EB
:1046800082E08F93CE0101967C019F938F930E94CD
:10469000602700E010E020E148E260E08EE10E9447
:1046A0005F252FEF3FEFA70160E08EE10E94D0234E
:1046B0000FB6F894DEBF0FBECDBF0F900F90DF9105
:0C46C000CF911F910F91FF90EF90089593
:1046CC00EF92FF920F931F93CF93DF9300D0CDB750
:1046DC00DEB71F928F9382EE92E09F938F931F927F
:1046EC0082E08F93CE0101967C019F938F930E9461
:1046FC00602700E010E020E14EE160E084E10E94E0
:10470C005F252FEF3FEFA70160E084E10E94D023EB
:10471C000FB6F894DEBF0FBECDBF0F900F90DF9198
:0C472C00CF911F910F91FF90EF90089526
:104738002FEF83ED90E3215080409040E1F700C0D7
:10474800000060E070E08CE00E947B1B2FEF85EE9C
:104758009AEA215080409040E1F700C0000064E1EF
:1047680070E086E00E947B1B2FEF89E698E12150DC
:1047780080409040E1F700C0000062E070E089E00E
:104788000E947B1B2FEF89E698E1215080409040E2
:08479800E1F700C000000895E4
:1047A000AF92BF92CF92DF92EF92FF920F931F933F
:1047B000CF93DF93C82FD62F69015801FA0180816A
:1047C000882391F07A01FFEFEF1AFF0A482F50E09B
:1047D000850196016D2F8C2F0E945C1ECA5FF70128
:1047E00081917F018111F2CFDF91CF911F910F91C4
:0E47F000FF90EF90DF90CF90BF90AF900895B4
:1047FE000E94F52588F09F5798F0B92F9927B75149
:10480E00B0F0E1F0660F771F881F991F1AF0BA9566
:10481E00C9F714C0B13091F00E94CE28B1E00895CE
:10482E000C94CE28672F782F8827B85F39F0B93FC0
:10483E00CCF3869577956795B395D9F73EF4909519
:0E484E008095709561957F4F8F4F9F4F089515
:10485C00CF93DF93CDB7DEB761970FB6F894DEBF79
:10486C000FBECDBF9AE2998394E09A831B828C830E
:10487C001D824E831F828BE2888799871A866B87ED
:10488C001C862D871E868CE28F87188A85E0898B83
:10489C0063E0CE0101960E94532061960FB6F89406
:0C48AC00DEBF0FBECDBFDF91CF9108959D
:1048B800DC01ED91FC91119780818A3221F080E032
:1048C80090E03AE00EC03196ED93FC93DB01ED9158
:1048D800FC911197CF0102968D939C9380819181D1
:1048E8000895ED91FC911197208120532A3068F4A6
:1048F800389FA001399F500D1124CA01820F911DC4
:0C49080031961196FC93EE93ECCF0895CD
:10491400DC01ED91FC91119780818A3221F080E0D5
:1049240090E03AE00EC03196ED93FC93DB01ED91FB
:10493400FC911197CF0102968D939C938081918174
:104944000895ED91FC911197208120532A3068F449
:10495400389FA001399F500D1124CA01820F911D67
:0C49640031961196FC93EE93ECCF089571
:10497000CF93DF93CDB7DEB72F970FB6F894DEBF96
:104980000FBECDBF8091E304811115C061E070E0DE
:1049900081E10E947B1B81E08093E3048FE0E5E5E9
:1049A000F3E0DE01119601900D928A95E1F7CE01B8
:1049B00001960E94C7272F960FB6F894DEBF0FBE50
:0849C000CDBFDF91CF910895F6
:1049C800CF93DF93CDB7DEB72F970FB6F894DEBF3E
:1049D8000FBECDBF8091E3048823A1F060E070E0B2
:1049E80086E10E947B1B1092E3048FE0E6E4F3E08B
:1049F800DE01119601900D928A95E1F7CE0101969C
:104A08000E94C7272F960FB6F894DEBF0FBECDBF02
:064A1800DF91CF9108952B
:104A1E00A0E0B0E0E5E1F5E20C9492267C01FB010A
:104A2E00EA01C901A280B380C480D58000811181C2
:104A3E00209711F4CEEBD4E0009719F4CE010E942A
:104A4E00E527B7FC04C0A816B90608F4C5019601FF
:104A5E00AC01BE01C7010E941F22CDB7DEB7EAE04E
:044A6E000C94AE26D0
:104A7200CF93DF9300D000D0CDB7DEB78370823002
:104A820031F0833031F0813031F480EA05C080E0CA
:104A920003C080E601C080EC96E3998391E09A839B
:104AA2008B831C8261E0CE0101960E9453200F90FD
:0C4AB2000F900F900F90DF91CF910895AE
:104ABE00DF92EF92FF920F931F93CF93DF93D82F36
:104ACE00E62ED42EF22E481768F40FC0CE2DA80174
:104ADE006C2F8D2F0E940128CF5FFC16C0F7DF5F71
:104AEE00DD1618F0FE1490F7FACFDF91CF911F91DB
:0A4AFE000F91FF90EF90DF900895F4
:104B0800990F0008550FAA0BE0E8FEEF16161706D6
:104B1800E807F907C0F012161306E407F50798F03E
:104B2800621B730B840B950B39F40A2661F0232B57
:104B3800242B252B21F408950A2609F4A140A695D3
:084B48008FEF811D811D08950E
:104B500084B18F6284B9569A84B5836884BD85B563
:104B6000846085BD8FE787BD83ED90E30197F1F702
:104B700000C00000299A80E58CBD81E08DBD81EEEA
:104B800094E00197F1F700C0000066E183E094E053
:064B90000E94532008956D
:104B9600A1E21A2EAA1BBB1BFD010DC0AA1FBB1F3B
:104BA600EE1FFF1FA217B307E407F50720F0A21BAD
:104BB600B30BE40BF50B661F771F881F991F1A941A
:104BC60069F760957095809590959B01AC01BD0144
:044BD600CF0108956E
:104BDA0057FD9058440F551F59F05F3F71F04795A4
:104BEA00880F97FB991F61F09F3F79F08795089589
:104BFA00121613061406551FF2CF4695F1DF08C0A8
:104C0A00161617061806991FF1CF869571056105C4
:044C1A00089408955D
:104C1E00CF93DF93EC0190E0E92FF0E0EE0FFF1F52
:104C2E00E857FB4F8081811102C081810EC0A8819F
:104C3E00B9812C91821305C091811196B983A883F5
:104C4E0001C09F5F9B3040F3892FDF91CF91089574
:104C5E00FA0160387105CCF0623871051CF06338CA
:104C6E00710599F4A081B1819D012C5F3F4F318375
:104C7E0020834D915D916D917C91FC014083518318
:104C8E006283738381E090E0089580E090E0089560
:104C9E0097FB10F8169400080F93083098F0085000
:104CAE00232F342F452F562F672F782F892F902D96
:104CBE00F4CF059497958795779567955795479572
:0C4CCE00379527950A95AAF70F910895D5
:104CDA00A0E0B0E0E3E7F6E20C9494266C01EB0165
:104CEA008A017B01E40EF51ECE15DF0541F089919C
:104CFA00B601082E000C990B0E94BD1FF5CFC80102
:0A4D0A00CDB7DEB7E8E00C94B02648
:104D14002F923F924F925F926F927F928F929F92C7
:104D2400AF92BF92CF92DF92EF92FF920F931F93B5
:104D3400CF93DF93CDB7DEB7CA1BDB0B0FB6F89466
:084D4400DEBF0FBECDBF0994D4
:104D4C002A88398848885F846E847D848C849B840F
:104D5C00AA84B984C884DF80EE80FD800C811B811D
:104D6C00AA81B981CE0FD11D0FB6F894DEBF0FBE4C
:064D7C00CDBFED0108951A
:104D82000F931F93CF93DF938C012FE74FE960E0DE
:104D920080E00E942E24C0E0D0E0C8010E94492891
:104DA2002196C11580E5D807C1F7DF91CF911F91F8
:044DB2000F910895C0
:104DB600A2E0B0E0E1EEF6E20C9498268C015A836C
:104DC6004983AE014F5F5F4F0E94A921F801208100
:104DD60024FF02C08FEF9FEF2296E4E00C94B426E6
:104DE600A2E0B0E0E9EFF6E20C9498268C015A8333
:104DF6004983AE014F5F5F4F0E94A921F8012081D0
:104E060024FF02C08FEF9FEF2296E4E00C94B426B5
:104E16000E94CA140E949C200E94BC1E0E949A1ADC
:104E26000E940F250E94A80A0E9412070E942F26A0
:0E4E36000E94281D0E9409200E941029089544
:104E44006695669590E2699FB00111244695469552
:104E54004695642B86958695869590E0982F8827AD
:0C4E6400990F990F990F862B972B08953A
:104E700097FB072E16F4009407D077FD09D00E9407
:104E80004C2707FC05D03EF4909581959F4F0895DF
:084E9000709561957F4F0895B4
:104E9800AA1BBB1B51E107C0AA1FBB1FA617B70758
:104EA80010F0A61BB70B881F991F5A95A9F7809574
:084EB8009095BC01CD010895A5
:104EC000A0E0B0E0E6E6F7E20C949A269E01255FAA
:104ED0003F4F49855A856F8178858D819E810E94DB
:084EE0002921E2E00C94B62642
:104EE800A0E0B0E0EAE7F7E20C949A26AE01475F4B
:104EF8005F4F6F8178858D819E810E94AB28E2E0AB
:044F08000C94B62629
:104F0C0022E02093B1001092B200880F991FE2EBBF
:104F1C00F0E0208130E028173907D8F31092B10067
:024F2C000895E6
:104F2E00092E0394000C11F4882352F0BB0F40F4A9
:104F3E00BF2B11F460FF04C06F5F7F4F8F4F9F4FE9
:024F4E000895C4
:104F500060957095809590953095409550952195E8
:104F60003F4F4F4F5F4F6F4F7F4F8F4F9F4F089572
:104F70009093C5008093C40088E18093C100E2EC67
:0E4F8000F0E086E08083808188608083089561
:104F8E00CF93DF93EC018881882331F021960E9424
:0E4F9E00932889918111FBCFDF91CF91089567
:104FAC00A29FB001B39FC001A39F700D811D11245E
:0E4FBC00911DB29F700D811D1124911D08954D
:104FCA00FC01AF014F5F5F4F2081222311F0FA01EC
:0C4FDA00F8CF9F01281B390BC901089576
:104FE600689401C0E8948F929F92CF93DF930E94BA
:0C4FF6006C1FDF91CF919F908F90089569
:10500200CF93DF93EA01262F482F0E942E24CE0150
:0A5012000E944928DF91CF91089514
:10501C000E949A1A0E94BC1E0E949C200E94CA14D4
:0A502C000E940F250E94281D089520
:105036001092C50087E68093C40088E18093C10082
:0850460086E08093C20008958A
:10504E000024A7FD00942A17300540055005600581
:08505E0070058005900508951E
:105066008093BB0084E88093BC00ECEBF0E0808189
:065076008823ECF7089509
:10507C00009741F0E9EFF0E03197F1F700C0000044
:06508C000197C1F7089531
:105092002A989EBD0DB407FEFDCF8EBD0DB407FE4E
:0650A200FDCF2A9A0895DB
:1050A800EC010E940E290E940D29CE010E940F29B1
:0650B800CE010E940B294D
:1050BE0080917800909179009093D8048093D704D2
:0250CE00089543
:1050D0009EBD0DB407FEFDCF8EBD0DB407FEFDCF06
:0250E000089531
:1050E2009C01215631092A31310510F48F75992717
:0250F20008951F
:1050F400FC01480F591FE417F50711F06193FBCF2A
:0251040008950C
:10510600E0ECF0E0908195FFFDCF8093C600089516
:10511600E0ECF0E080818823ECF78091C6000895EA
:10512600E0ECF0E0908195FFFDCF8093C6000895F6
:105136009C01215431092A31310508F48062089511
:10514600FC01DB012D91BD0121932111FACF0895B8
:0E5156009A01AB016FEF7FE70E94E5210895FB
:0E5164005058BB27AA270E94901D0C94972735
:0E5172000E94FF236894B1110C94CF28089579
:0E51800000240A94161617061806090608954C
:0E518E0000240A94121613061406050608954E
:0E519C00E894BB2766277727CB0197F9089583
:0C51AA0097F99F6780E870E060E00895CE
:0A51B6008EBD0DB407FEFDCF089575
:0A51C0002A980E94DB282A9A08951D
:0A51CA000E94842508F481E0089596
:0A51D4000E94842508F48FEF08956F
:0851DE008091C0008078089563
:0851E6000E940C1B0C9497279A
:0851EE000E94551C0C94972748
:0651F6000E949B280895B1
:0651FC000E9471280895D5
:065202000E940B27089535
:065208009FEF80EC089509
:04520E000C940000FC
:0452120087BD0895B7
:045216000E9494005E
:02521A000895F5
:02521C000895F3
:02521E000895F1
:025220000895EF
:10522200000000000000005F0000000700070014FB
:105232007F147F14242A7F2A1223130864623649BA
:105242005522500005030000001C224100004122AB
:105252001C0014083E081408083E080800503000DC
:105262000008080808080060600000201008040216
:105272003E5149453E00427F40004261514946212C
:1052820041454B311814127F1027454545393C4A98
:1052920049493001710905033649494936064949E8
:1052A200291E00363600000056360000081422413E
:1052B20000141414141400412214080201510906A6
:1052C200324979413E7E1111117E7F494949363E6C
:1052D200414141227F4141221C7F494949417F0985
:1052E2000909013E4149497A7F0808087F00417F48
:1052F20041002040413F017F081422417F4040404D
:10530200407F020C027F7F0408107F3E4141413EF4
:105312007F090909063E4151215E7F091929464646
:105322004949493101017F01013F4040403F1F206F
:1053320040201F3F4038403F631408146307087041
:1053420008076151494543007F41410002040810AA
:10535200200041417F0004020102044040404040DD
:10536200000102040020545454787F4844443838E1
:1053720044444420384444487F3854545418087EE6
:105382000901020C5252523E7F0804047800447D07
:1053920040002040443D007F1028440000417F40EF
:1053A200007C041804787C080404783844444438A7
:1053B2007C14141408081414187C7C08040408488B
:1053C20054545420043F4440203C4040207C1C2044
:1053D20040201C3C4030403C44281028440C505093
:1053E200503C4464544C44000836410000007F00A5
:1053F20000004136080010080810080006090906D6
:10540200257500746573740A004572726F722063A9
:105412006F64653A2025303258253032580A0043ED
:105422006F6D6D616E642065786563757465642067
:105432007375636365737366756C6C79210A0049D1
:105442006E76616C696420726573706F6E7365202D
:105452006F7220636865636B73756D206572726F1E
:10546200722E0A004D757369632053746F707065F4
:10547200640A004D7573696320506C6179696E67C7
:105482000A0045646974696E673A20005365636F68
:105492006E64730054696D653A003A0054656D702C
:1054A2003A202D2D20430048756D69643A202D2D38
:1054B20025004D696E7574657300486F75727300CF
:1054C20054656D703A20256420430048756D696407
:1054D2003A202564252500253032753A253032756B
:1054E2003A253032750025303264004144433A2077
:1054F20025642C2044657465637465643A202564D0
:105502002C204D757369633A2025640A0043616C4F
:105512006C696E6720506C61795F4D757369630ABF
:015522000088
:105523000100961100FFB103012C2D00B203012CE1
:105533002D00B306012C2D012C2D00B4010700C052
:10554300030A028405C101C505C2020A0005C3029C
:105553008A2A05C4028AEE05C5010E002000003622
:1055630001C8003A0105002A040000007F002B0453
:105573000000009F00E010021C07123732292D297A
:10558300252B390001031000E110031D07062E2C03
:10559300292D2E2E373F000002100013000A290088
:0555A300643601600AFE
:1055A80068076C094C836A9074A07AC00080688888
:0655B80000846C820081FA
:1055BE00494E4600696E66004E414E006E616E00A9
:1055CE00494E4600696E66004E414E006E616E0099
:0755DE00286E756C6C2900BA
:0655E500286E696C29002C
:0655EB00286E696C290026
:0455F1000A000000AC
:0155F5006352
:0155F6006351
:0155F7006350
:0155F80001B1
:00000001FF
